:100000000C944A000C940F050C9447050C945C006A
:100010000C945C000C945C000C945C000C945C00F0
:100020000C945C000C945C000C945C000C945C00E0
:100030000C945C000C945C000C945C000C945C00D0
:100040000C946C000C945C000C945C000C945C00B0
:100050000C945C000C945C000C945C000C945C00B0
:100060000C945C000C947D000C945C000C945C007F
:100070000C945C000C945C000C945C000C945C0090
:100080000C94E4090C945C000C94200A0C945C0021
:100090000C945C0011241FBECFEFD0E1DEBFCDBFBA
:1000A00013E0A0E0B1E001C01D92AE3FB107E1F75F
:1000B0000E94F70C0C94480E0C940000109243011F
:1000C000109236011092350182E080936E008BE031
:1000D00084BD89EF87BD08951F920F920FB60F92CE
:1000E00011248F93809143018F5F809343018F91FF
:1000F0000F900FBE0F901F9018951F920F920FB682
:100100000F9211240BB60F922F938F939F93EF931F
:10011000FF93E0914901F0E080917800209179000F
:1001200090E0922BEE0FFF1FED5AFE4F91838083DC
:10013000809149018F5F80934901833010F01092C4
:100140004901E0914901F0E0E65BFE4F8081806467
:1001500080937C0080917A00806480937A00FF9184
:10016000EF919F918F912F910F900BBE0F900FBE2B
:100170000F901F9018951092490110924A0181E04A
:1001800080934B0182E080934C01EAE7F0E080E845
:100190008083808187608083808188608083A09154
:1001A0004901B0E0A65BBE4F8C91806480937C00D7
:1001B000808180648083089580910402909105027B
:1001C000A0910602B0910702892B8A2B8B2B71F527
:1001D00080915B0190915C01A0915D01B0915E0105
:1001E000892B8A2B8B2B11F58091520181110FC025
:1001F000209145013091460180914701909148013D
:100200002817390798F481E08093520108958130CE
:1002100069F4209145013091460180914701909108
:1002200048012817390710F0109252010895809163
:100230003A01882331F08130F1F410923A01769A34
:100240000895209140012F5F2093400180913F014C
:1002500082172CF0769881E080933A010895332735
:1002600027FD3095992787FD90950496821793076F
:1002700014F41092400108956E9A1092400181E0AA
:1002800080933F0110923A01089589B1807880935C
:10029000390108955F9A0C9445010F931F93CF93F2
:1002A000DF930E942F0B8FEF9FEF90935A01809363
:1002B000590184E280935A0380E580935B0386E4CE
:1002C00080935C0382E480935D030EE513E088E491
:1002D000F8018083CFE5D3E089E488838CE28093C2
:1002E000600392E3909361038093620390936303AE
:1002F0008093640391E390936503809366038091F8
:100300000001805D809367038EE090E09093FB0393
:100310008093FA030E94A90C83E5F801808384E5A9
:10032000888387E090E09093FB038093FA03109218
:100330003B0110923C0110923D0110923E0110923F
:100340004D0110924E0110924F0110925001DF9119
:10035000CF911F910F9108954F925F926F927F926C
:100360008F929F92AF92BF92CF92DF92EF92FF92C5
:100370000F931F93CF93DF938091B902833409F0D9
:100380004FC08091BA02843571F510925A011092D3
:10039000590185E090E090935703809356030E94A3
:1003A0003F0BAA2797FDA095BA2F80930402909344
:1003B0000502A0930602B093070280915603909124
:1003C0005703019609F4CAC00E943F0BAA2797FD64
:1003D000A095BA2F80935B0190935C01A0935D017F
:1003E000B0935E01BBC0803509F0B8C085E090E0F5
:1003F00090935703809356030E943F0B90933801CC
:10040000809337018091560390915703019609F428
:10041000A5C00E943F0B90934201809341019EC072
:10042000833591F48091BA02803509F097C085E058
:1004300090E090935703809356030E943F0B909354
:100440004801809347018AC0873509F087C08091B1
:10045000BA02803509F082C085E090E0909357039E
:10046000809356030E943F0B8093B701813009F0BF
:1004700075C00E943F0BBC019093BB018093BA01F1
:1004800088EE93E00E94770D7093B9016093B801F4
:100490008091560390915703019609F45FC00E9422
:1004A0003F0BEC018091560390915703019609F49C
:1004B00055C00E943F0B3C01809156039091570319
:1004C000019609F44BC00E943F0B7C0180915603BA
:1004D00090915703019609F441C00E943F0B4C01D3
:1004E00080915603909157030196C1F10E943F0BF2
:1004F000FC0181E0809351015401CC24B7FCC094ED
:10050000DC2C0027F7FC0095102F9301442737FDC2
:100510004095542F6091BA017091BB01882777FDF7
:100520008095982F2E01662457FC6094762C7F923C
:100530006F925F924F922F01662457FC6094762C45
:100540007F926F925F924F920E947F058DB79EB708
:1005500008960FB6F8949EBF0FBE8DBFDF91CF9166
:100560001F910F91FF90EF90DF90CF90BF90AF90D1
:100570009F908F907F906F905F904F900895CF9253
:10058000DF92EF92FF9287E090E09093FB038093DD
:10059000FA0380914401992787FD90950E94870C6A
:1005A0008091670190916801A0916901B0916A0101
:1005B00040913B0150913C0160913D0170913E01A1
:1005C000841B950BA60BB70B4091670150916801F6
:1005D0006091690170916A0140933B0150933C0125
:1005E00060933D0170933E01C0906B01D0906C010F
:1005F000E0906D01F0906E0140914D0150914E01DF
:1006000060914F0170915001C41AD50AE60AF70AA9
:1006100040916B0150916C0160916D0170916E0180
:1006200040934D0150934E0160934F0170935001E0
:100630000E94650CC6010E94650C80914501909155
:1006400046010E94870C80916101909162010E9495
:10065000650C80915F01909160010E94650C809112
:100660008B0190918C010E94650C8091B301909157
:10067000B4010E94650C8091A7019091A8010E948D
:10068000650C8091AB019091AC010E94650C80914A
:10069000AF019091B0010E94650C8091D8019091BA
:1006A000D9010E94650C80910002909101020E9484
:1006B000650C8091F4019091F5010E94650C809188
:1006C000F8019091F9010E94650C8091FC019091D4
:1006D000FD010E94650C8091FA039091FB03019744
:1006E0009093FB038093FA03FF90EF90DF90CF90FD
:1006F0000C94A90C80915201813011F485E021C045
:100700008091590190915A01039730F084E08093D1
:1007100044011092510117C080915101811102C012
:1007200083E00FC08091580390915903892B41F0C9
:1007300082E080934401109259031092580303C041
:1007400081E0809344018091440180933F010895AA
:1007500080913501909136010196803127E2920710
:1007600029F0909336018093350104C01092360130
:1007700010923501809135019091360164E170E06D
:100780000E94630D892B11F40E947F068091350130
:10079000909136016091BA017091BB010E94630D86
:1007A000892B49F48091B701882319F00E946507CD
:1007B00002C00E94A5088091350190913601609198
:1007C0003701709138010E94630D892B11F40E944A
:1007D000BF022091350130913601C9016AE070E015
:1007E0000E94630D892BB1F5A895C90164E670E0FC
:1007F0000E94630D892BF1F4809141019091420197
:10080000892B51F08091590190915A010196909352
:100810005A018093590104C010925A011092590153
:10082000809153019091540190934601809345012A
:100830000E947A03809135019091360168EC70E056
:100840000E94630D892B31F40E9445010E9417011B
:100850000C94DC00089584B714BE843081F02CF42D
:10086000813041F0823049F00895883051F0803174
:1008700051F0089510920001089581E005C082E0D2
:1008800003C083E001C084E080930001089580915B
:10089000440183300CF077C0809161019091620136
:1008A00097FF14C0809180008F77809380008091A3
:1008B00061019091620191958195910990938B00CE
:1008C00080938A0080918000806212C0892BA1F001
:1008D000809180008F7D8093800080916101909154
:1008E00062019093890080938800809180008068E5
:1008F00080938000109A0BC0809180008F77809346
:100900008000809180008F7D80938000109880917E
:100910005F019091600197FF14C0809190008F77E4
:100920008093900080915F019091600191958195F5
:10093000910990939B0080939A008091900080622F
:1009400012C0892BA1F0809190008F7D8093900040
:1009500080915F019091600190939900809398003D
:1009600080919000806880939000129A0895809101
:1009700090008F7780939000809190008F7D80937E
:10098000900012980895809180008F778093800066
:10099000809180008F7D809380001098109262017A
:1009A00010926101809190008F77809390008091E8
:1009B00090008F7D809390001298109260011092A9
:1009C0005F0108958DB383608DBBE9E6F0E080811F
:1009D00085608083489A019A499A039A1092670128
:1009E000109268011092690110926A0110922D0113
:1009F00010922E0110922F011092300110926B0173
:100A000010926C0110926D0110926E0110922901EA
:100A100010922A0110922B0110922C0108951F921E
:100A20000F920FB60F9211248F939F93AF93BF93A2
:100A3000489B03C0019B03C00EC0019B0CC080916A
:100A4000670190916801A0916901B0916A010197D5
:100A5000A109B1090BC08091670190916801A09133
:100A60006901B0916A010196A11DB11D80936701D2
:100A700090936801A0936901B0936A01BF91AF910F
:100A80009F918F910F900FBE0F901F9018951F92FE
:100A90000F920FB60F9211248F939F93AF93BF9332
:100AA000499B03C0039B03C00EC0039B0CC08091F5
:100AB0006B0190916C01A0916D01B0916E01019656
:100AC000A11DB11D0BC080916B0190916C01A09193
:100AD0006D01B0916E010197A109B10980936B017D
:100AE00090936C01A0936D01B0936E01BF91AF9193
:100AF0009F918F910F900FBE0F901F9018954F925E
:100B00005F926F927F92AF92BF92CF92DF92EF92FD
:100B1000FF920F931F93CF93DF93CDB7DEB72C9740
:100B20000FB6F894DEBF0FBECDBF2B013C01E982AA
:100B3000FA820B831C838D8D9E8DAF8DB8A18D8322
:100B40009E83AF83B88789A19AA1ABA1BCA18093F2
:100B5000310190933201A0933301B093340140925C
:100B60007B0150927C0160927D0170927E01209306
:100B70006F01309370014093710150937201E092C4
:100B80007301F09274010093750110937601A092A5
:100B90007701B0927801C0927901D0927A018D816B
:100BA0009E81AF81B88580937F0190938001A0934F
:100BB0008101B093820180E197E2A0E0B0E08093F0
:100BC000970190939801A0939901B0939A0184E6BC
:100BD00090E0A0E0B0E08093A3019093A401A093E3
:100BE000A501B093A6018FE691E029873A874B874C
:100BF0005C870E94B7084092C8015092C901609278
:100C0000CA017092CB0129853A854B855C8520937A
:100C1000BC013093BD014093BE015093BF01898157
:100C20009A81AB81BC818093C0019093C101A09354
:100C3000C201B093C301A092C401B092C501C09299
:100C4000C601D092C7018D819E81AF81B885809306
:100C5000CC019093CD01A093CE01B093CF0180E160
:100C600097E2A0E0B0E08093E4019093E501A093C7
:100C7000E601B093E70184E690E0A0E0B0E0809365
:100C8000F0019093F101A093F201B093F3018CEB8A
:100C900091E02C960FB6F894DEBF0FBECDBFDF916A
:100CA000CF911F910F91FF90EF90DF90CF90BF9069
:100CB000AF907F906F905F904F900C94B708089A18
:100CC000259A269A9AE09093800081E08093810093
:100CD00010926201109261010A9A6B9A6C9A909339
:100CE0009000809391001092600110925F0108952E
:100CF00081E08093B7010E94E2040C945F06E7E272
:100D0000F1E0A3E1B1E092918291938382839E917D
:100D10008E9113969C938E93129781E0E531F8079C
:100D200091F78091670190916801A0916901B0915C
:100D30006A0120912D0130912E01821B930B90931B
:100D40001601809315018091670190916801A0912F
:100D50006901B0916A0180932D0190932E01A093B7
:100D60002F01B093300180916B0190916C01A091A3
:100D70006D01B0916E012091290130912A01821BF1
:100D8000930B909302018093010180916B019091EC
:100D90006C01A0916D01B0916E0180932901909337
:100DA0002A01A0932B01B0932C010895FF920F9379
:100DB0001F93CF93DF93FC01608171814281538146
:100DC00024813581DB01A40FB51FA20FB31FCD0114
:100DD00044968997B8F0EFE0E69FC001E79F900D39
:100DE0001124EAE0E49FB001E59F700D1124860F05
:100DF000971F65E0629FA001639F500D1124840F2F
:100E0000951F5DC006811781C085D185C8018C0FF3
:100E10009D1F8A0F9B1F4496000F111F000F111F6B
:100E2000DE01AA0FBB1F8997D0F0EAE0E69FC00160
:100E3000E79F900D1124E3E0440F551FEA95E1F779
:100E4000840F951F66E0629FA001639F500D1124DF
:100E5000840F951F800F911F8A0F9B1F30C087E062
:100E6000F82EF69EC001F79E900D112466E0F62E36
:100E7000F49EB001F59E700D1124860F971F65E05A
:100E8000629FA001639F500D1124840F951F800F56
:100E9000911FCA0FDB1F8C0F9D1F22853385220FE8
:100EA000331F820F931F24853585820F931F26855C
:100EB0003785820F931F20893189820F931FDF911D
:100EC000CF911F910F91FF900895CF92DF92EF92F3
:100ED000FF92209104023091050240910602509148
:100EE0000702211531054105510509F47DC08091A6
:100EF000440183300CF078C0AEE1B0E00E94480DB0
:100F000032E3C32ED12CE12CF12CA70196010E94D3
:100F10008B0D20938301309384014093850150937E
:100F2000860185E191E00E94D606AA2797FDA0954B
:100F3000BA2F8093870190938801A0938901B09381
:100F40008A018FE691E00E94DB086091B301709105
:100F5000B4018091B5019091B601A70196010E945C
:100F60008B0D8091630190916401A0916501B09116
:100F70006601280F391F4A1F5B1F209363013093BE
:100F80006401409365015093660180910402909141
:100F90000502A0910602B0910702609131017091A3
:100FA0003201181619061A061B061CF4260F371FE5
:100FB00002C0261B370B30936201209361018091A0
:100FC000610190916201811522E092071CF08FEF80
:100FD00091E005C081309E4FBCF481E09EEF90937C
:100FE00062018093610110C010926301109264014C
:100FF00010926501109266011092620110926101D7
:101000008FE691E00E94B70820915B0130915C016E
:1010100040915D0150915E01211531054105510559
:1010200009F47DC08091440183300CF078C0AEE1BA
:10103000B0E00E94480D22E3C22ED12CE12CF12C0D
:10104000A70196010E948B0D2093D0013093D1010E
:101050004093D2015093D30181E091E00E94D606E3
:10106000AA2797FDA095BA2F8093D4019093D5011C
:10107000A093D601B093D7018CEB91E00E94DB08DE
:10108000609100027091010280910202909103022E
:10109000A70196010E948B0D809108029091090290
:1010A000A0910A02B0910B02280F391F4A1F5B1F43
:1010B000209308023093090240930A0250930B02D6
:1010C00080915B0190915C01A0915D01B0915E0106
:1010D0006091310170913201181619061A061B062B
:1010E0001CF4260F371F02C0261B370B30936001FC
:1010F00020935F0180915F0190916001811522E052
:1011000092071CF08FEF91E005C081309E4FBCF438
:1011100081E09EEF9093600180935F0110C0109278
:1011200008021092090210920A0210920B02109209
:10113000600110925F018CEB91E00E94B708FF9074
:10114000EF90DF90CF900C9447048091040290912F
:101150000502909362018093610180915B019091FF
:101160005C019093600180935F010C944704FC0143
:10117000148E158E168E178E10A211A212A213A213
:1011800014A615A616A617A610AE11AE12AE13AE73
:1011900014AE15AE16AE17AEDC01A05CBF4F1D92AB
:1011A0001D921D921C921397EC5BFF4F10821182CF
:1011B0001282138208952F923F924F925F926F9204
:1011C0007F928F929F92AF92BF92CF92DF92EF92D7
:1011D000FF920F931F93CF93DF9300D000D0CDB732
:1011E000DEB71C01DC015496CD90DD90ED90FC90B3
:1011F000579758968D919D910D90BC91A02DC81A2E
:10120000D90AEA0AFB0AF101C48ED58EE68EF78E62
:1012100084849584A684B784A7019601C501B4018E
:101220000E94530D04A515A526A537A5600F711FB3
:10123000821F931F64A775A786A797A720A531A52E
:1012400042A553A50E948B0DF10124A335A346A30B
:1012500057A380899189A289B38982179307A4072C
:10126000B5076CF0B095A095909581959F4FAF4FC5
:10127000BF4F281739074A075B072CF4F10184A3F5
:1012800095A3A6A3B7A3F10180A191A1A2A1B3A1A7
:10129000A7019601281B390B4A0B5B0B64A975A9A2
:1012A00086A997A90E94530DA50194010E948B0D58
:1012B00029833A834B835C83D101D0962D933D9350
:1012C0004D935C93D3976D917D918D919C91A701E6
:1012D00096010E94530D2B013C01F10160AF71AFEB
:1012E00082AF93AF248135814681578164A175A176
:1012F00086A197A10E94530D4B015C01D101DC96A0
:101300006D937D938D939C93DF9760857185828526
:10131000938529813A814B815C810E94530DE05C69
:10132000FF4F6083718382839383F101EC5BFF4FF6
:1013300093018201080D191D2A1D3B1D060F171F61
:10134000281F391F0083118322833383F101C0A238
:10135000D1A2E2A2F3A20F900F900F900F90DF9115
:10136000CF911F910F91FF90EF90DF90CF90BF90A2
:10137000AF909F908F907F906F905F904F903F9035
:101380002F900895E9ECF0E088E180831092CD0081
:1013900080E18093CC0086E08093CA0080818068E1
:1013A0008083109261021092600210920E021092DD
:1013B0000D021092B5021092B402109263021092C4
:1013C000620210925F0208951F920F920FB60F9261
:1013D00011240BB60F922F933F938F939F93EF930C
:1013E000FF93809160029091610201968035910592
:1013F00029F0909361028093600204C01092610210
:1014000010926002809160029091610220910D0221
:1014100030910E028217930731F02091CE00FC012B
:10142000E15FFD4F2083FF91EF919F918F913F915D
:101430002F910F900BBE0F900FBE0F901F9018951D
:101440001F920F920FB60F9211240BB60F922F938B
:101450003F938F939F93EF93FF93809162029091BC
:1014600063022091B4023091B50228173907B9F010
:1014700001968035910529F0909363028093620272
:1014800004C01092630210926202E0916202F09135
:101490006302EC59FD4F80818093CE0007C080919C
:1014A000C9008F7B8093C90010925F02FF91EF917A
:1014B0009F918F913F912F910F900BBE0F900FBE78
:1014C0000F901F9018952091B4023091B502809131
:1014D0006202909163022817390711F181E080932D
:1014E0005F028091C90080648093C900809162028C
:1014F0009091630201968035910529F090936302E3
:101500008093620204C01092630210926202E09122
:101510006202F0916302EC59FD4F80818093CE000E
:1015200008952091B4023091B5022F5F3F4F2035CE
:10153000310529F03093B5022093B40204C0109213
:10154000B5021092B4022091B4023091B5024091DC
:101550006202509163022417350721F0F901EC591A
:10156000FD4F808380915F02811102C00C94630A59
:1015700008959091C80095FFFCCF8093CE00089508
:10158000FC012081222389F12091B4023091B5021F
:101590002F5F3F4F2035310529F03093B50220935E
:1015A000B40204C01092B5021092B4022091B402A9
:1015B0003091B502409162025091630224173507C1
:1015C00041F0F901EC59FD4FDC014C91408320E0E2
:1015D00009C01092B5021092B402109263021092E8
:1015E000620221E00196222359F280915F0281116B
:1015F00002C00C94630A08958091C8008074089515
:1016000081E0409160025091610220910D02309181
:101610000E024217530709F480E0089580910D02ED
:1016200090910E0201968035910529F090930E025B
:1016300080930D0204C010920E0210920D02E091F0
:101640000D02F0910E02E15FFD4F808108958091BF
:10165000C80087FF03C08091CE00F9CF08958FEFB7
:101660009FEF9093FD038093FC0310925903109217
:1016700058038DE00E94910A8AE00C94910AFF922F
:101680000F931F93CF93DF93C0915603D0915703CD
:10169000FE01EA54FD4F80818C3291F52196FE01C6
:1016A000EA54FD4F2081CE012C3251F12091FC03F0
:1016B0003091FD038E010A541D4FC217D3078CF0E1
:1016C000F801F08010828A549D4F0E94DB0DF801D2
:1016D000F082FCE2FF120DC0D0935703C093560373
:1016E00011C0F80140814C3259F34A3249F3219636
:1016F000E1CF2FEF3FEF309357032093560302C003
:1017000080E090E0DF91CF911F910F91FF900895BD
:10171000CF93DF938091FC039091FD031816190677
:101720006CF584E20E94910A85E40E94910A85E4A6
:101730000E94910A85E40E94910A85E40E94910A20
:1017400085E40E94910A8CE20E94910AC6EBD2E0E5
:101750008091FC039091FD039E01265B3240281787
:10176000390724F489910E94910AF2CF8DE00E94FA
:10177000910A8AE0DF91CF910C94910ADF91CF9189
:101780000895CF93DF93CFEFDFEF0E94000B882304
:1017900009F498C00E940E0B2091FC033091FD03C8
:1017A000843289F42F3F3F4F49F080915803909144
:1017B0005903019690935903809358031092FD03A7
:1017C0001092FC03E2CF8D3019F08A3009F04EC040
:1017D000243031050CF445C029303105ECF1C90144
:1017E0000397FC01EA54FD4F40814A32C1F5E6EB14
:1017F000F2E060E041916427AF01465B5240481738
:101800005907C4F32A543D4FF901329780818A3336
:1018100014F4805309C0873414F4875305C0873605
:1018200014F4875501C080E040E1849FC001112479
:10183000F901319720812A3314F4205309C0273449
:1018400014F4275305C0273614F4275501C020E0AF
:10185000282B62132DC003C0263031054CF10E94A5
:10186000AC01D093FD03C093FC038FCF2F3F9FEFBC
:10187000390709F48ACFA9014F5F5F4F5093FD03E9
:101880004093FC03F901EA54FD4F8083403A51052F
:1018900009F07BCFD093FD03C093FC0380915803E4
:1018A00090915903019690935903809358036DCFFB
:1018B0008091580390915903019690935903809316
:1018C0005803CFCFDF91CF9108956091FA037091C3
:1018D000FB03665A7C4F4AE050E00E94F90D80916C
:1018E000FA039091FB039C010196FC01E75AFC4F1F
:1018F00040814111F8CFC90101969093FB03809379
:10190000FA03F901E65AFC4F8CE280830895609156
:10191000FA037091FB03665A7C4F4AE050E00E9444
:10192000F90D8091FA039091FB039C010196FC0153
:10193000E75AFC4F40814111F8CFC90101969093BD
:10194000FB038093FA03F901E65AFC4F8CE2808393
:1019500008952091FA033091FB03B9016F5F7F4F27
:101960007093FB036093FA03F901E65AFC4F8AE295
:101970008083EBE5F3E080E0AF014A555340421726
:1019800053071CF491918927F7CF665A7C4F40E1A9
:1019900050E090E00E94220E2091FA033091FB0368
:1019A000A9014E5F5F4FC9018417950761F0FC01E3
:1019B000E65AFC4F60817FE9760F763010F4605272
:1019C00060830196F1CF2E5F3F4FF901E65AFC4F3D
:1019D0008DE080838AE081832D5F3F4F3093FB034E
:1019E0002093FA0312828AE593E00C94C00A0E94C5
:1019F0002B040E945E000E943C010E944A010E944A
:101A0000BB000E94C2090E94780682E390E0909396
:101A1000BB018093BA0184E190E09093B901809377
:101A2000B801909338018093370181E090E0909362
:101A300042018093410183E090E090935A018093AA
:101A4000590180E491E090934801809347011092FE
:101A500052010E947A03789428E088E190E00FB662
:101A6000F894A895809360000FBE209360000E94B8
:101A70004D0180914301882341F0809143018150C1
:101A8000809343010E94A803F4CF0E94C10BF1CFC1
:101A90000E94AA0DA59F900DB49F900DA49F800D4C
:101AA000911D11240895DB018F939F930E94480D8F
:101AB000BF91AF91A29F800D911DA39F900DB29FEA
:101AC000900D11240895AA1BBB1B51E107C0AA1F4A
:101AD000BB1FA617B70710F0A61BB70B881F991FCF
:101AE0005A95A9F780959095BC01CD01089597FB73
:101AF000072E16F4009407D077FD09D00E94630DDD
:101B000007FC05D03EF4909581959F4F0895709500
:101B100061957F4F0895052E97FB1EF400940E9457
:101B2000A20D57FD07D00E94B90D07FC03D04EF45B
:101B30000C94A20D50954095309521953F4F4F4FF5
:101B40005F4F089590958095709561957F4F8F4F69
:101B50009F4F0895A29FB001B39FC001A39F700D36
:101B6000811D1124911DB29F700D811D1124911DA5
:101B70000895A1E21A2EAA1BBB1BFD010DC0AA1FCE
:101B8000BB1FEE1FFF1FA217B307E407F50720F0E6
:101B9000A21BB30BE40BF50B661F771F881F991F61
:101BA0001A9469F760957095809590959B01AC01AA
:101BB000BD01CF010895FC0188279927E894219160
:101BC0002032E9F3293010F02E30C8F32B3241F0E7
:101BD0002D3239F4689404C00E941A0E820F911DB0
:101BE000219120532A30C0F31EF4909581959F4F88
:101BF0000895FB019F01E8944230C4F04532B4F4EB
:101C00004A3029F497FB1EF4909581959F4F642FDD
:101C100077270E94630D805D8A330CF0895D819384
:101C2000CB010097A1F716F45DE251931082C90130
:101C30000C94380E7AE0979F902D879F802D910D00
:101C400011240895FB019F01423074F0453264F481
:101C5000642F77270E94630D805D8A330CF0895DC5
:101C60008193CB010097A1F71082C9010C94380E23
:101C7000DC01FC01672F71917723E1F7329704C0F3
:101C80007C916D9370836291AE17BF07C8F308957E
:041C9000F894FFCFF6
:00000001FF
