:100000000C944A000C9458050C9490050C945C00D8
:100010000C945C000C945C000C945C000C945C00F0
:100020000C945C000C945C000C945C000C945C00E0
:100030000C945C000C945C000C945C000C945C00D0
:100040000C946C000C945C000C945C000C945C00B0
:100050000C945C000C945C000C945C000C945C00B0
:100060000C945C000C947D000C945C000C945C007F
:100070000C945C000C945C000C945C000C945C0090
:100080000C94EC090C945C000C94270A0C945C0012
:100090000C945C0011241FBECFEFD0E1DEBFCDBFBA
:1000A00013E0A0E0B1E001C01D92AA3FB107E1F763
:1000B0000E944F040C94F00D0C9400001092430128
:1000C000109236011092350182E080936E008BE031
:1000D00084BD89EF87BD08951F920F920FB60F92CE
:1000E00011248F93809143018F5F809343018F91FF
:1000F0000F900FBE0F901F9018951F920F920FB682
:100100000F920BB60F9211242F933F938F939F93CF
:10011000EF93FF93E0914901F0E080917800909196
:100120007900392F20E090E0822B932BEE0FFF1FF8
:10013000ED5AFE4F91838083809149018F5F8093B8
:10014000490180914901833010F010924901E091FA
:100150004901F0E0E65BFE4F8081806480937C0083
:1001600080917A00806480937A00FF91EF919F9153
:100170008F913F912F910F900BBE0F900FBE0F905C
:100180001F9018951092490110924A0181E08093C6
:100190004B0182E080934C01EAE7F0E080E8808345
:1001A000808187608083808188608083A0914901FD
:1001B000B0E0A65BBE4F8C91806480937C00808110
:1001C00080648083089580910202909103020097D9
:1001D00041F580915B0190915C01009711F5809150
:1001E0005201882379F42091450130914601809194
:1001F0004701909148012817390798F481E08093CE
:1002000052010895813069F42091450130914601F1
:1002100080914701909148012817390710F01092FA
:100220005201089580913A01882331F08130F1F430
:1002300010923A01769A0895209140012F5F209301
:10024000400180913F0182172CF0769881E08093E5
:100250003A010895332727FD3095992787FD90951A
:1002600004968217930714F41092400108956E9A31
:100270001092400181E080933F0110923A0108956D
:1002800089B180788093390108955F9A0E94400176
:1002900008950E94370B8FEF9FEF90935A01809340
:1002A000590184E28093560380E58093570386E4E6
:1002B0008093580382E48093590388E480935A031F
:1002C00089E480935B038CE280935C0392E39093D8
:1002D0005D0380935E0390935F038093600391E3DB
:1002E000909361038093620380910001805D80930D
:1002F00063038EE090E09093F7038093F6030E94EF
:10030000AE0C83E580935A0384E580935B0387E01A
:1003100090E09093F7038093F60310923B011092C4
:100320003C0110923D0110923E0110924D0110923D
:100330004E0110924F011092500108954F925F921A
:100340006F927F928F929F92AF92BF92CF92DF92E5
:10035000EF92FF920F931F93CF93DF938091B5029B
:10036000833409F043C08091B602843501F51092C0
:100370005A011092590185E090E0909353038093C5
:1003800052030E94480B90930302809302028091D3
:100390005203909153032FEF8F3F920709F4E2C06D
:1003A0000E94480B90935C0180935B01DBC0803519
:1003B00009F0D8C085E090E09093530380935203F6
:1003C0000E94480B9093380180933701809152032B
:1003D000909153033FEF8F3F930709F4C3C00E94EE
:1003E000480B9093420180934101BCC0833591F446
:1003F0008091B602803509F0B5C085E090E0909319
:100400005303809352030E94480B909348018093BA
:100410004701A8C0873509F0A5C08091B602803594
:1004200009F0A0C085E090E09093530380935203BD
:100430000E94480B8093B501813009F093C00E945F
:10044000480BBC019093B9018093B80188EE93E00A
:100450000E94330D7093B7016093B60180915203EF
:10046000909153036FEF8F3F960709F47BC00E9472
:10047000480B2C0180915203909153037FEF8F3FE3
:10048000970709F46FC00E94480BEC01809152035A
:1004900090915303EFEF8F3F9E0709F463C00E94D2
:1004A000480B6C018091520390915303FFEF8F3FF3
:1004B0009F0709F457C00E94480B4C0180915203DA
:1004C000909153032FEF8F3F920709F44BC00E9486
:1004D000480B21E0209351016DB77EB76850704002
:1004E0000FB6F8947EBF0FBE6DBFE090B801F090DC
:1004F000B9010027F7FC0095102F9E01442737FD16
:100500004095542FF6015F01CC24B7FCC094DC2C3D
:10051000B4013B01882477FC8094982CAA2797FD8E
:10052000A095BA2FEDB7FEB781839283A383B483DE
:10053000C201AA2797FDA095BA2F85839683A7832A
:10054000B087C801B70186017501640153010E949B
:10055000C8052DB73EB7285F3F4F0FB6F8943EBF92
:100560000FBE2DBFDF91CF911F910F91FF90EF90A4
:10057000DF90CF90BF90AF909F908F907F906F90C3
:100580005F904F900895EF92FF920F931F9387E033
:1005900090E09093F7038093F603809144019927AC
:1005A00087FD90950E948C0C809165019091660169
:1005B000A0916701B091680120913B0130913C010D
:1005C00040913D0150913E01821B930BA40BB50B52
:1005D0002091650130916601409167015091680159
:1005E00020933B0130933C0140933D0150933E01E9
:1005F000E0906901F0906A0100916B0110916C012B
:1006000020914D0130914E0140914F015091500188
:10061000E21AF30A040B150B2091690130916A016B
:1006200040916B0150916C0120934D0130934E012C
:1006300040934F01509350010E946A0CC7010E94E1
:100640006A0C80914501909146010E948C0C80912A
:100650005F01909160010E946A0C80915D01909110
:100660005E010E946A0C8091890190918A010E942A
:100670006A0C8091B1019091B2010E946A0C809144
:10068000A5019091A6010E946A0C8091A901909108
:10069000AA010E946A0C8091AD019091AE010E9466
:1006A0006A0C8091D6019091D7010E946A0C8091CA
:1006B000FE019091FF010E946A0C8091F2019091DD
:1006C000F3010E946A0C8091F6019091F7010E945B
:1006D0006A0C8091FA019091FB010E946A0C809152
:1006E000F6039091F70301979093F7038093F60335
:1006F0000E94AE0C1F910F91FF90EF900895809192
:100700005201813011F485E022C08091590190910D
:100710005A018330910530F084E0809344011092B7
:10072000510117C080915101882311F483E00FC05B
:100730008091540390915503009741F082E080939B
:100740004401109255031092540303C081E080933A
:1007500044018091440180933F01089580913501C7
:10076000909136010196909336018093350127E2EE
:100770008031920721F41092360110923501809158
:1007800035019091360164E170E00E941F0D0097E1
:1007900011F40E949B068091350190913601609181
:1007A000B8017091B9010E941F0D009749F4809122
:1007B000B501882319F00E94950702C00E94C40861
:1007C0008091350190913601609137017091380127
:1007D0000E941F0D009711F40E94C3022091350161
:1007E00030913601C9016AE070E00E941F0D009748
:1007F000B1F5A895C90164E670E00E941F0D00974D
:10080000F1F48091410190914201009751F0809163
:10081000590190915A01019690935A018093590180
:1008200004C010925A011092590180915301909185
:10083000540190934601809345010E947F0380916B
:1008400035019091360168EC70E00E941F0D009711
:1008500031F40E9440010E9412010E94E3000895B9
:1008600084B714BE843089F085302CF4813041F097
:100870008230A1F408C0883051F0803179F40BC087
:1008800010920001089581E003C082E001C083E07E
:1008900080930001089584E08093000108950E94F0
:1008A00030040E945E000E9437010E9445010E94B0
:1008B000C2000E94CA090E94930682E390E09093CE
:1008C000B9018093B80184E190E09093B7018093DF
:1008D000B601909338018093370181E090E09093C6
:1008E00042018093410183E090E090935A0180930C
:1008F000590180E491E09093480180934701109260
:1009000052010E947F03789428E088E190E00FB6BE
:10091000F894A895809360000FBE209360000E9419
:10092000490180914301882341F080914301815026
:10093000809343010E94AE03F4CF0E94CF0BF1CF0E
:100940008091440183300CF067C080915F019091E9
:10095000600197FF10C0209180002F7720938000C6
:10096000909581959F4F90938B0080938A00809102
:10097000800080620EC0009781F0209180002F7D62
:10098000209380009093890080938800809180005C
:10099000806880938000109A0BC0809180008F77D0
:1009A00080938000809180008F7D809380001098DC
:1009B00080915D0190915E0197FF10C020919000A1
:1009C0002F7720939000909581959F4F90939B0057
:1009D00080939A008091900080620EC0009781F011
:1009E000209190002F7D2093900090939900809308
:1009F000980080919000806880939000129A0895EA
:100A0000809190008F7780939000809190008F7DEF
:100A10008093900012980895809180008F77809342
:100A20008000809180008F7D8093800010981092CC
:100A3000600110925F01809190008F778093900009
:100A4000809190008F7D80939000129810925E01AB
:100A500010925D0108958DB383608DBBE9E6F0E0EF
:100A6000808185608083489A019A499A039A1092FE
:100A70006501109266011092670110926801109250
:100A80002D0110922E0110922F0110923001109220
:100A9000690110926A0110926B0110926C01109220
:100AA00031011092320110923301109234010895F5
:100AB0001F920F920FB60F9211248F939F93AF93B3
:100AC000BF93489B03C0019B03C00EC0019B0CC099
:100AD0008091650190916601A0916701B0916801D4
:100AE0000197A109B1090BC0809165019091660140
:100AF000A0916701B09168010196A11DB11D80937D
:100B0000650190936601A0936701B0936801BF915E
:100B1000AF919F918F910F900FBE0F901F901895DE
:100B20001F920F920FB60F9211248F939F93AF9342
:100B3000BF93499B03C0039B03C00EC0039B0CC023
:100B40008091690190916A01A0916B01B0916C0153
:100B50000196A11DB11D0BC08091690190916A01A0
:100B6000A0916B01B0916C010197A109B10980932B
:100B7000690190936A01A0936B01B0936C01BF91DE
:100B8000AF919F918F910F900FBE0F901F9018956E
:100B90002F923F924F925F926F927F928F929F928D
:100BA000AF92BF92CF92DF92EF92FF920F931F937B
:100BB000DF93CF93CDB7DEB728970FB6F894DEBF9B
:100BC0000FBECDBF69837A838B839C831701280175
:100BD00089A19AA1ABA1BCA18093150190931601A4
:100BE000A0931701B093180189819A81AB81BC81D0
:100BF0008093790190937A01A0937B01B0937C015B
:100C0000EDE6F1E02083318342835383E482F58271
:100C100006831783A086B186C286D3868D8D9E8D6E
:100C2000AF8DB8A1808B918BA28BB38B90E1E92E15
:100C300097E2F92E012D112DE0A6F1A602A713A728
:100C400084E6682E712C812C912C64AA75AA86AA40
:100C500097AACF012D833E834F8358870E94D708E0
:100C600089819A81AB81BC818093C6019093C70131
:100C7000A093C801B093C901EAEBF1E02D813E8158
:100C80004F81588520833183428353832482358268
:100C900046825782A086B186C286D3868D8D9E8D70
:100CA000AF8DB8A1808B918BA28BB38BE0A6F1A600
:100CB00002A713A764AA75AA86AA97AACF010E94C1
:100CC000D70828960FB6F894DEBF0FBECDBFCF91E0
:100CD000DF911F910F91FF90EF90DF90CF90BF9029
:100CE000AF909F908F907F906F905F904F903F90CC
:100CF0002F900895089A259A269A9AE0909380005A
:100D000081E0809381001092600110925F010A9A45
:100D10006B9A6C9A909390008093910010925E0170
:100D200010925D01089581E08093B5010E942B052A
:100D30000E947A060895E3E1F1E0ABE2B1E092911E
:100D40008291938382839E918E9113969C938E932E
:100D5000129781E0E130F80791F780916501909159
:100D60006601A0916701B091680120912D01309139
:100D70002E01821B930B90930201809301018091BD
:100D8000650190916601A0916701B091680180931F
:100D90002D0190932E01A0932F01B09330018091EB
:100DA000690190916A01A0916B01B0916C01209151
:100DB000310130913201821B930B90931A01809381
:100DC00019018091690190916A01A0916B01B09124
:100DD0006C018093310190933201A0933301B09361
:100DE00034010895CF92DF92EF92FF920F931F93F9
:100DF000CF93DF93FC016081718142815381248113
:100E00003581DA01A20FB31FA60FB71FCD0144969B
:100E100089329105F0F0DA01AA0FBB1FE3E0440F1D
:100E2000551FEA95E1F7A40FB51FC901880F991F57
:100E3000880F991F820F931FA80FB91FCB0104E0E1
:100E4000880F991F0A95E1F7861B970BA80FB91F0A
:100E500062C006811781C085D185CE01800F911FA8
:100E60008A0F9B1F44967801EE0CFF1CEE0CFF1CB2
:100E70008B01B3E0000F111FBA95E1F76E01CC0CA6
:100E8000DD1C89329105D0F0DA0183E0AA0FBB1F87
:100E90008A95E1F7AE0DBF1D660F771F600F711FBA
:100EA000A60FB71FC901880F991F820F931F880FC4
:100EB000991FA80FB91FAC0DBD1D2DC0D801A61BD1
:100EC000B70B84859585A80FB91F86859785A80FD0
:100ED000B91F80899189A80FB91FCA01880F991F6E
:100EE000840F951F880F991FA80FB91FAE0DBF1D46
:100EF000C901880F991F880F991F820F931FA80F90
:100F0000B91F82859385880F991FA80FB91FCC0D33
:100F1000DD1DAC0FBD1FCD01DF91CF911F910F9152
:100F2000FF90EF90DF90CF90089580910202909112
:100F30000302009709F47FC02091440123300CF094
:100F40007AC09C01220F331F45E0880F991F4A95F4
:100F5000E1F7821B930B62E370E00E94330D882758
:100F600077FD8095982F6093810170938201809323
:100F700083019093840181E091E00E94F206AA2708
:100F800097FDA095BA2F8093850190938601A09339
:100F90008701B09388018DE691E00E94FB08609183
:100FA000B1017091B2018091B3019091B40122E33B
:100FB00030E040E050E00E94460D80916101909148
:100FC0006201A0916301B0916401280F391F4A1F8B
:100FD0005B1F209361013093620140936301509342
:100FE0006401609102027091030280911501909159
:100FF0001601161617061CF4280F391F02C0281BED
:10100000390B3093600120935F0180915F019091D3
:10101000600122E0803092071CF08FEF91E006C063
:101020002EEF81309207BCF481E09EEF9093600137
:1010300080935F0110C010926101109262011092C2
:101040006301109264011092600110925F018DE6BD
:1010500091E00E94D70880915B0190915C0100971C
:1010600009F47FC02091440123300CF07AC09C0128
:10107000220F331FA5E0880F991FAA95E1F7821B65
:10108000930B62E370E00E94330D882777FD809513
:10109000982F6093CE017093CF018093D0019093ED
:1010A000D10189E191E00E94F206AA2797FDA0955F
:1010B000BA2F8093D2019093D301A093D401B0931F
:1010C000D5018AEB91E00E94FB086091FE017091CE
:1010D000FF01809100029091010222E330E040E0A4
:1010E00050E00E94460D8091040290910502A0916B
:1010F0000602B0910702280F391F4A1F5B1F209379
:101100000402309305024093060250930702609157
:101110005B0170915C01809115019091160116168A
:1011200017061CF4280F391F02C0281B390B3093F7
:101130005E0120935D0180915D0190915E0122E04E
:10114000803092071CF08FEF91E006C02EEF8130C7
:101150009207BCF481E09EEF90935E0180935D0165
:1011600010C0109204021092050210920602109212
:10117000070210925E0110925D018AEB91E00E94DD
:10118000D7080E94A0040895809102029091030262
:101190009093600180935F0180915B0190915C016D
:1011A00090935E0180935D010E94A0040895FC016C
:1011B000148E158E168E178E10A211A212A213A2D3
:1011C00014A615A616A617A610AE11AE12AE13AE33
:1011D00014AE15AE16AE17AEDC01A05CBF4F1D926B
:1011E0001D921D921C921397EC5BFF4F108211828F
:1011F0001282138208952F923F924F925F926F92C4
:101200007F928F929F92AF92BF92CF92DF92EF9296
:10121000FF920F931F93CF93DF93EC016C887D882F
:101220008E889F88888D998DAA8DBB8D681A790AC2
:101230008A0A9B0A6C8E7D8E8E8E9F8ECC84DD8476
:10124000EE84FF84C401B301A70196010E94000D42
:101250002CA53DA54EA55FA5620F731F841F951F8A
:101260006CA77DA78EA79FA728A539A54AA55BA532
:101270000E94460D2CA33DA34EA35FA388899989A4
:10128000AA89BB8982179307A407B50764F0B095B4
:10129000A095909581959F4FAF4FBF4F2817390765
:1012A0004A075B0724F48CA39DA3AEA3BFA388A128
:1012B00099A1AAA1BBA1A4019301281B390B4A0B38
:1012C0005B0BCA01B9012CA93DA94EA95FA90E94D7
:1012D000000DA70196010E94460D122F032FB42E78
:1012E000A52E28AB39AB4AAB5BAB288139814A814B
:1012F0005B81C401B3010E94000D1B012C0168AF8A
:1013000079AF8AAF9BAF6CA17DA18EA19FA12C81EB
:101310003D814E815F810E94000D6B017C016CAFAD
:101320007DAF8EAF9FAF288539854A855B85612F5C
:10133000702F8B2D9A2D0E94000DFE01E05CFF4F57
:101340006083718382839383FE01EC5BFF4FC20C49
:10135000D31CE41CF51CC60ED71EE81EF91EC08265
:10136000D182E282F38268A279A28AA29BA2DF9153
:10137000CF911F910F91FF90EF90DF90CF90BF9092
:10138000AF909F908F907F906F905F904F903F9025
:101390002F900895E9ECF0E088E180831092CD0071
:1013A00080E18093CC0086E08093CA0080818068D1
:1013B000808310925D0210925C0210920A021092D9
:1013C00009021092B1021092B00210925F021092C4
:1013D0005E0210925B0208951F920F920FB60F9259
:1013E0000BB60F9211242F933F938F939F93EF93FC
:1013F000FF9380915C0290915D02019690935D0253
:1014000080935C028035910521F410925D02109268
:101410005C0280915C0290915D0220910902309102
:101420000A028217930731F02091CE00855F9D4F0D
:10143000FC012083FF91EF919F918F913F912F911C
:101440000F900BBE0F900FBE0F901F9018951F921C
:101450000F920FB60F920BB60F9211242F933F935A
:101460008F939F93EF93FF9380915E0290915F0221
:101470002091B0023091B10228173907B1F00196DE
:1014800090935F0280935E028035910521F4109263
:101490005F0210925E02E0915E02F0915F02E05AFC
:1014A000FD4F80818093CE0007C08091C9008F7B63
:1014B0008093C90010925B02FF91EF919F918F91F1
:1014C0003F912F910F900BBE0F900FBE0F901F906A
:1014D00018952091B0023091B10280915E029091F6
:1014E0005F0228173907E9F021E020935B02209181
:1014F000C90020642093C900019690935F028093F5
:101500005E028035910521F410925F0210925E0216
:10151000E0915E02F0915F02E05AFD4F808180937E
:10152000CE0008952091B0023091B1022F5F3F4F5D
:101530003093B1022093B0022035310521F410928E
:10154000B1021092B0022091B0023091B1024091EC
:101550005E0250915F022417350721F0205A3D4F5B
:10156000F901808380915B02882311F40E94690A4B
:1015700008959091C80095FFFCCF8093CE00089508
:10158000FC012BC02091B0023091B1022F5F3F4F80
:101590003093B1022093B0022035310521F410922E
:1015A000B1021092B0028091B0029091B1022091EC
:1015B0005E0230915F028217930731F0805A9D4F8F
:1015C0002191DC012C9309C01092B1021092B0025B
:1015D00010925F0210925E0203C08081882391F610
:1015E00080915B02882311F40E94690A089580911A
:1015F000C8008074089581E040915C0250915D02C2
:101600002091090230910A024217530709F480E041
:1016100008958091090290910A02019690930A021E
:10162000809309028035910521F410920A021092EC
:101630000902E0910902F0910A02E55FFD4F808105
:10164000089502C08091CE008091C80087FDFACF36
:1016500008958A3314F480530895873414F487531B
:101660000895873614F48755089580E008958FEF24
:101670009FEF9093F9038093F80310925503109213
:1016800054038DE00E94920A8AE00E94920A089513
:10169000FF920F931F93CF93DF938091520390910A
:1016A0005303FC01EE54FD4F20812C3291F5EC01E7
:1016B0002196FE01EE54FD4F20812C3251F12091F4
:1016C000F8033091F90301C02196C217D3072CF417
:1016D00041914C3211F04A32B9F78E010E541D4F30
:1016E000F801F08010828D549D4F0E94830D9C0163
:1016F000F801F082FF2DFC3229F4D0935303C093FC
:10170000520309C08FEF9FEF9093530380935203CE
:1017100002C020E030E0C901DF91CF911F910F910D
:10172000FF9008950F931F93CF93DF938091F80359
:101730009091F903181619066CF584E20E94920A3A
:1017400085E40E94920A85E40E94920A85E40E9440
:10175000920A85E40E94920A85E40E94920A8CE231
:101760000E94920A02EB12E0C0E0D0E006C0F8014D
:1017700081918F010E94920A21968091F8039091A5
:10178000F903C817D9079CF38DE00E94920A8AE0FA
:101790000E94920ADF91CF911F910F910895EF92CD
:1017A000FF920F931F93CF93DF93CFEFDFEF82C0B2
:1017B0000E94090B8432B1F48091F8039091F903EF
:1017C0002FEF8F3F920749F080915403909155037A
:1017D000019690935503809354031092F90310924D
:1017E000F80368C08D3019F08A3009F041C00091CB
:1017F000F8031091F90304301105ACF1093011051B
:1018000034F1F801E155FD4F80818A3209F058C06A
:10181000E2EBF2E0C80181559D4FFF242191F226B1
:10182000E817F907D9F70E541D4FF8013297808158
:101830000E94290BE82EF801319780810E94290B24
:10184000E29490EFE922E82AFE1421F439C0063030
:101850001105B4F58091540390915503019690932E
:10186000550380935403D093F903C093F80322C027
:101870002091F8033091F9039FEF2F3F3907D1F002
:10188000F901EE54FD4F80832F5F3F4F3093F903F2
:101890002093F803203A310569F4D093F903C093FB
:1018A000F80380915403909155030196909355034A
:1018B000809354030E94FB0A882309F079CF03C068
:1018C0000E949E01D0CFDF91CF911F910F91FF9089
:1018D000EF9008956091F6037091F7036A5A7C4F78
:1018E0004AE050E00E94A10D8091F6039091F70329
:1018F000FC01EA5AFC4F9C01419101964423D9F71F
:10190000F901EA5AFC4F8CE280832F5F3F4F3093FE
:10191000F7032093F60308956091F6037091F7039F
:101920006A5A7C4F4AE050E00E94A10D8091F60374
:101930009091F703FC01EA5AFC4F9C0141910196FA
:101940004423D9F7F901EA5AFC4F8CE280832F5FD8
:101950003F4F3093F7032093F60308954091F60329
:101960005091F703FA01EA5AFC4F8AE28083BA01E8
:101970006F5F7F4F7093F7036093F603E7E5F3E043
:1019800080E021E030E004C0919189272F5F3F4F34
:1019900024173507CCF36A5A7C4F90E040E150E0C1
:1019A0000E94CA0D8091F6039091F703FC01EA5A58
:1019B000FC4F9C01285A3C4F08C04081542F51567F
:1019C000563010F4405240833196E217F307A9F7DE
:1019D000FC01E85AFC4F2DE02083FC01E75AFC4F44
:1019E0002AE02083FC01E65AFC4F10820596909372
:1019F000F7038093F60386E593E00E94C00A0895FA
:101A0000629FD001739FF001829FE00DF11D649FE2
:101A1000E00DF11D929FF00D839FF00D749FF00D6E
:101A2000659FF00D9927729FB00DE11DF91F639F0F
:101A3000B00DE11DF91FBD01CF0111240895AA1BAE
:101A4000BB1B51E107C0AA1FBB1FA617B70710F0A9
:101A5000A61BB70B881F991F5A95A9F780959095DB
:101A6000BC01CD01089597FB092E07260AD077FD0A
:101A700004D0E5DF06D000201AF4709561957F4F01
:101A80000895F6F7909581959F4F089597FB092E3D
:101A900005260ED057FD04D014D00AD0001C38F40F
:101AA00050954095309521953F4F4F4F5F4F08958A
:101AB000F6F790958095709561957F4F8F4F9F4F6A
:101AC0000895A1E21A2EAA1BBB1BFD010DC0AA1F7F
:101AD000BB1FEE1FFF1FA217B307E407F50720F097
:101AE000A21BB30BE40BF50B661F771F881F991F12
:101AF0001A9469F760957095809590959B01AC015B
:101B0000BD01CF010895FC0188279927E894219110
:101B10002032E9F3293010F02E30C8F32B3241F097
:101B20002D3239F4689404C00E94C20D820F911DB9
:101B3000219120532A30C0F31EF4909581959F4F38
:101B40000895FB019F01E8944230C4F04532B4F49B
:101B50004A3029F497FB1EF4909581959F4F642F8E
:101B600077270E941F0D805D8A330CF0895D819379
:101B7000CB010097A1F716F45DE251931082C901E1
:101B80000C94E00D7AE0979F902D879F802D910D0A
:101B900011240895FB019F01423074F0453264F432
:101BA000642F77270E941F0D805D8A330CF0895DBA
:101BB0008193CB010097A1F71082C9010C94E00D2D
:101BC000DC01FC01672F71917723E1F7329704C0A4
:101BD0007C916D9370836291AE17BF07C8F308952F
:041BE000F894FFCFA7
:00000001FF
